:020000040800F2
:10000000600600200D020008D505000869040008FC
:10001000D1050008C70200087507000800000000AD
:1000200000000000000000000000000019060008A9
:10003000CB02000800000000D705000809070008EF
:1000400027020008270200082702000827020008EC
:1000500027020008270200082702000827020008DC
:1000600027020008270200082702000827020008CC
:1000700027020008270200082702000827020008BC
:1000800027020008270200082702000827020008AC
:10009000270200082702000827020008270200089C
:1000A000270200082702000827020008270200088C
:1000B000270200082702000827020008270200087C
:1000C000270200082702000827020008270200086C
:1000D000270200082702000827020008270200085C
:1000E000270200082702000827020008270200084C
:1000F000270200082702000827020008270200083C
:10010000270200082702000827020008270200082B
:10011000270200082702000827020008270200081B
:10012000270200082702000827020008270200080B
:1001300027020008270200082702000827020008FB
:1001400027020008270200082702000827020008EB
:1001500027020008270200082702000827020008DB
:1001600027020008270200082702000827020008CB
:1001700027020008270200082702000827020008BB
:10018000270200082702000800F002F800F02EF80D
:100190000AA090E8000C82448344AAF10107DA45E2
:1001A00001D100F023F8AFF2090EBAE80F0013F006
:1001B000010F18BFFB1A43F0010318473C0600006B
:1001C0004C0600000023002400250026103A28BF1A
:1001D00078C1FBD8520728BF30C148BF0B607047B9
:1001E0001FB500F003FB1FBD10B510BD00F036F8C1
:1001F0001146FFF7F5FF00F0EDFA00F054F803B4F4
:10020000FFF7F2FF03BC00F057F8000009488047F1
:1002100009480047FEE7FEE7FEE7FEE7FEE7FEE7E8
:10022000FEE7FEE7FEE7FEE704480549054A064B00
:10023000704700000D0700088901000860000020D9
:1002400060060020600200206002002070477047B6
:100250007047000000487047000000207546FFF717
:10026000F9FFAE4605006946534620F00700854673
:1002700018B020B5FFF7D8FFBDE820404FF00006CA
:100280004FF000074FF000084FF0000B21F007017E
:10029000AC46ACE8C009ACE8C009ACE8C009ACE8C1
:1002A000C0098D46704710B50446AFF30080204664
:1002B000BDE81040FFF7A3BF01491820ABBEFEE721
:1002C00026000200704700BFFEE77047F0B50A46FF
:1002D00000210023002400BF3DE0012505FA01F3C1
:1002E000156805EA03049C4234D105684F000326D3
:1002F000BE40B543056015794E00B54006683543EC
:1003000005601579012D02D01579022D16D1856869
:100310004F000326BE40B543856055794E00B54079
:10032000866835438560456801268E40B543456043
:10033000456896798E40B6B235434560C5684F0032
:100340000326BE40B543C560D5794E00B540C668AA
:100350003543C560491C1029BFD3F0BD0A04826132
:100360007047816170474161704700001CB50121F1
:10037000084600F031F901208DF8040000208DF8C6
:10038000060048F2FF10009000208DF807000320BF
:100390008DF8050069462F48FFF798FF01210220DC
:1003A00000F01AF901208DF8040000208DF80600F5
:1003B00040F2FB30009000208DF8070003208DF8FC
:1003C000050069462448FFF781FF0121042000F061
:1003D00003F901208DF8040000208DF806004FF489
:1003E000E050009000208DF8070003208DF80500F4
:1003F00069461A48FFF76AFF0121102000F0ECF867
:1004000001208DF8040000208DF8060003200090E4
:1004100000208DF8070003208DF80500694610487C
:10042000FFF754FF0121082000F0D6F801208DF8D5
:10043000040000208DF806004FF47040009000206A
:100440008DF8070003208DF8050069460548FFF781
:100450003DFF1CBD000002400004024000080240B5
:1004600000100240000C024000BFFEE770B50646D7
:1004700000240DE0002506E032462946204600F023
:100480000BF8681C85B2B5F5F07FF5DB601C84B213
:10049000B4F5A07FEEDB70BD70B504460D46164680
:1004A0002A2000F037F8201200F056F8E0B200F0F1
:1004B00053F82B2000F02EF8281200F04DF8E8B287
:1004C00000F04AF82C2000F025F8301200F044F833
:1004D000F0B200F041F870BD10B5012000F01AF83C
:1004E000C82000F049F9282000F014F83A2000F064
:1004F00011F8552000F030F8362000F00BF84820B5
:1005000000F02AF8292000F005F8C82000F034F99E
:1005100010BD000010B5044680210D48FFF71EFFF6
:1005200040210B48FFF71AFF21460A48FFF71BFF3F
:100530004FF480710648FFF711FF4FF480710448B3
:10054000FFF70FFF80210248FFF70BFF10BD0000EF
:10055000000402400000024010B5044680210D480E
:10056000FFF7FCFE40210B48FFF7FBFE21460A483F
:10057000FFF7F9FE4FF480710648FFF7EFFE4FF4E6
:1005800080710448FFF7EDFE80210248FFF7E9FE85
:1005900010BD000000040240000002401CB5012113
:1005A000084600F019F801208DF8040003208DF8AA
:1005B000050000208DF806008DF8070080200090CF
:1005C00069460248FFF782FE1CBD000000000240A1
:1005D00000BFFEE77047704729B1064A1268024320
:1005E000044B1A6004E0034A12688243014B1A600C
:1005F000704700003038024029B1064A12680243B1
:10060000044B1A6004E0034A12688243014B1A60EB
:100610007047000040380240704700000CB50020D1
:10062000019000903448006840F4803032490860FE
:1006300000BF3148006800F4003000900198401C71
:100640000190009818B90198B0F5A04FF1D12A484F
:10065000006800F4003010B10120009001E000209B
:1006600000900098012846D123484030006840F0AF
:1006700080502149403108602048006840F44040E3
:100680001E4908601C48083000681B490831086092
:100690000846006840F4004008600846006840F4DE
:1006A000A05008601648091F0860081F006840F045
:1006B0008070091F086000BF0F48006800F00070DC
:1006C0000028F9D040F205700E4908600A48083049
:1006D000006820F0030008490831086008460068F7
:1006E00040F00200086000BF03480830006800F0D6
:1006F0000C000828F8D10CBD003802400070004002
:1007000019544007003C02407047000010B51548DE
:10071000006840F47000134908601348006840F016
:1007200001001149086000200F49083108600E4897
:1007300000680E4908400C4908600D48091D086012
:10074000081F006820F48020091F08600020064967
:100750000C310860FFF762FF4FF0006001498039FB
:10076000086010BD88ED00E000380240FFFFF6FE93
:100770001030002400BFFEE710B5044601214020E0
:10078000FFF73AFF42F2CF0011490880601E091DB1
:10079000086000200E49091F086001200C49143927
:1007A00008800020091F0880012009492839088095
:1007B00000BF0748183800880028FAD000200449F4
:1007C0002839088000214020FFF716FF10BD0000E7
:1007D00028180040FFF7E2FEFFF7C8FDFFF77CFE98
:1007E0004FF6FF70FFF742FE00BFFEE74FF040708C
:1007F000E1EE100A70470000080800080000002021
:0808000060060000C4010008BD
:040000050800020DE0
:00000001FF
